:04000000F4EF03F026
:1000080000C015F0F2A21FD01C50000A1BE1010E1F
:100018001C6E1D5205E01650010A02E11D6A12D03D
:10002800010E166E3C0E186E000E196E010E1D6E36
:10003800E10ED76E7C0ED66E0B0ECF6EDC0ECE6E3A
:100048001A6A1B6AF292F0A01ED01E50000A1AE12A
:10005800010E1E6E1D5205E01650000A02E11D6ACF
:1000680011D0166A0A0E186E000E196E010E1D6E5A
:10007800E10ED76E7C0ED66E0B0ECF6EDC0ECE6EFA
:100088001A6A1B6AF090F2A41DD0E10ED76E7C0E9E
:10009800D66E1D5216E0165214E0800E006E800EC9
:1000A8001918005C02E11850000804E2010E185EFD
:1000B800000E195A000E191802E1000E1818D8B4CB
:1000C8001D6AF2949EA02AD00B0ECF6EDC0ECE6E67
:1000D8001D5223E0165221E11A4A1B2A800E1B18D2
:1000E800006E800E005C02E1040E1A5C16E31A6AC8
:1000F8001B6A800E006E800E1918005C02E1185011
:10010800000804E2010E185E000E195A000E1918B4
:1001180002E1000E1818D8B41D6A9E9015C000F0B0
:020128001100C4
:06012A00000000001200BD
:100130000F0E0C6E470E0D6E0D2EFED70C2EFCD73B
:06014000000000001200A7
:0A014600210E0D6E0D2EFED71200E3
:1001500050BE02D0839601D0838650BC02D08394D7
:1001600001D0838450BA02D0839201D0838250B8E8
:1001700002D0839001D0838023B002D0838801D045
:100180008398838AD2DF839A50B602D0839601D0B7
:10019000838650B402D0839401D0838450B202D0BD
:1001A000839201D0838250B002D0839001D08380AB
:1001B00023B002D0838801D08398838AB6DF839AE4
:0C01C00023A002D0B5DF01D0BEDF12008A
:1001CC000134083609360450085E0550D8A0053CA9
:1001DC00095E003601360F0E0C6E013408360936F6
:1001EC00045000A006D0085E0550D8A0053C095E5E
:1001FC0005D008260550D8B0053C09260036013636
:10020C000C2EEBD700B006D0045008260550D8B001
:08021C00053C09260000120058
:0C0224000E0E0D6E0D2EFED70000120015
:0C02300023904FC050F08CDF23801200A0
:10023C00086A096A100E0C6E01340836093604502F
:10024C00085E0550D8A0053C095ED8B007D0045014
:10025C0008260550D8B0053C0926D8900036013642
:06026C000C2EEAD712007F
:100272000FD0800E4A6E19D0C00E4A6E16D0940E60
:100282004A6E13D0D40E4A6E10D0800E4A6E0DD034
:100292004A50010AEEE04A50020AEEE04A50030ACE
:1002A200EEE04A50040AEEE0F0D74B04006E4A50EA
:1002B200002600C04AF000C050F049DF23904E6A89
:1002C2004E504C24E96E000E4D20EA6EEE520BE0C9
:1002D2004E504C24E96E000E4D20EA6EEECF4FF0E8
:0A02E200A6DF4E2AEDD7238012009C
:1002EC00830EC2164AC000F0003600900036009013
:1002FC000050C21291DFC282C2A201D0FDD7C4CF7E
:0E030C0001F0006AC3500012000E0112120030
:10031A00EC0E1F6E020E206E4A0E216E000E226E29
:10032A00C26A171C006E0050C116070EC012C08E9A
:04033A00C28012006B
:10033E000900F5CFE6FF0006FBE10106F9E1120028
:10034E00959A95989590959295949596839A83986B
:10035E008396839483928390E4DEE3DEE2DE8382EF
:10036E008380838ADBDE839ADCDE838AD7DE839A00
:10037E00D8DE838AD3DE839AD4DE8390838ACEDE60
:10038E00839ACFDE838ACADE839A83928386838A98
:10039E00C5DE839AC6DE83968380838ABFDE839A08
:1003AE008390838ABBDE839ABCDE838AB7DE839A10
:1003BE008380838AB3DE839AB4DE8390838AAEDE33
:1003CE00839A8386838483828380838AA7DE839A3B
:0603DE00A8DE23801200DE
:1003E4000B6A0A6A096A086A0E6A033408360450FA
:1003F400085E0550D8A0053C095E0650D8A0063C0E
:100404000A5E0750D8A0073C0B5EE86AD8A0010E2C
:100414000E5E0336070E0C6E0334083609360A36B0
:100424000B360E36045003A012D0085E0550D8A037
:10043400053C095E0650D8A0063C0A5E0750D8A0C9
:10044400073C0B5EE86AD8A0010E0E5E11D00826A8
:100454000550D8B0053C09260650D8B0063C0A26FB
:100464000750D8B0073C0B26E86AD8B0010E0E2618
:1004740003360C2ED1D70234083609360A360B3629
:100484000E36045003A012D0085E0550D8A0053CD7
:10049400095E0650D8A0063C0A5E0750D8A0073C67
:1004A4000B5EE86AD8A0010E0E5E11D00826055036
:1004B400D8B0053C09260650D8B0063C0A26075099
:1004C400D8B0073C0B26E86AD8B0010E0E260236D7
:1004D400070E0C6E0234083609360A360B360E3611
:1004E400045002A012D0085E0550D8A0053C095E55
:1004F4000650D8A0063C0A5E0750D8A0073C0B5E05
:10050400E86AD8A0010E0E5E11D008260550D8B0B6
:10051400053C09260650D8B0063C0A260750D8B038
:10052400073C0B26E86AD8B0010E0E2602360C2EC4
:10053400D1D70134083609360A360B360E36045044
:1005440002A012D0085E0550D8A0053C095E0650F2
:10055400D8A0063C0A5E0750D8A0073C0B5EE86AA8
:10056400D8A0010E0E5E11D008260550D8B0053C67
:1005740009260650D8B0063C0A260750D8B0073CD6
:100584000B26E86AD8B0010E0E260136070E0C6E53
:100594000134083609360A360B360E36045001A0EB
:1005A40012D0085E0550D8A0053C095E0650D8A0BC
:1005B400063C0A5E0750D8A0073C0B5EE86AD8A048
:1005C400010E0E5E11D008260550D8B0053C092650
:1005D4000650D8B0063C0A260750D8B0073C0B2674
:1005E400E86AD8B0010E0E2601360C2ED1D700349D
:1005F400083609360A360B360E36045001A012D0DE
:10060400085E0550D8A0053C095E0650D8A0063CFB
:100614000A5E0750D8A0073C0B5EE86AD8A0010E1A
:100624000E5E11D008260550D8B0053C09260650A8
:10063400D8B0063C0A260750D8B0073C0B26E86A17
:10064400D8B0010E0E260036070E0C6E00340836A4
:1006540009360A360B360E36045000A012D0085E56
:100664000550D8A0053C095E0650D8A0063C0A5E99
:100674000750D8A0073C0B5EE86AD8A0010E0E5EB6
:1006840011D008260550D8B0053C09260650D8B02C
:10069400063C0A260750D8B0073C0B26E86AD8B0B7
:1006A400010E0E2600360C2ED1D700B00ED0045009
:1006B40008260550D8B0053C09260650D8B0063C9B
:0C06C4000A260750D8B0073C0B26120095
:1006D000220E0C6E086A096A0A6A0B6A0C06D8B404
:1006E0001FD0D8900B320A3209320832033202325C
:1006F00001320032D8A0F2D70C06D8B409D0045089
:1007000008260550092206500A2207500B22EAD774
:10071000045008260550092206500A2207500B22D1
:020720001200C5
:100722000450000A08E10550000A05E1FF0E006EC0
:100732007F0E016E57D00D6A096A086A01500010D7
:10074200D8B4000C015005180A6E0ABE0D1E0B6AC1
:1007520005AE05D0041E051E042AD8B4052A01AE32
:1007620005D0001E011E002AD8B4012A015005102E
:100772000A6E0ABE10D029DD0BB020D00DAE000CDF
:10078200001E011E002AD8B4012A081E091E082ACA
:10079200D8B4092A000C05AE0DD001BE07D0015015
:1007A200096E0050086E016A006AE8D7016A006AA1
:1007B200002A000C011E001E0B2ADDD7082AD8B41D
:1007C200092A0450085CD8A4D9D70550095CD8A4DA
:1007D200D5D7096A086A002AD8B4012A01AECED751
:0607E2000000FF0C1200F4
:1007E8004FEC05F0720EF66E0A0EF76E000EF86EFC
:1007F800240EE16E000EE26E220E006E010E016EF6
:100808009ADD040E0B6E0C0E0C6E330E0D6E0D2E53
:10081800FED70C2EFCD70B2EFAD70000000079DD8E
:100828003B0EC16E938093829280949082908BDD70
:100838000C0E506E89DC010E506E86DCF18CF18A4C
:10084800F292F090F288F086870ED56EE10ED76EA0
:100858007C0ED66EF294F28AB10ECD6E0B0ECF6E70
:10086800DC0ECE6E9E909D80F28CF28E81A01C6A6A
:1008780081A21E6A1D52D8B490D04A6A33DD000E98
:10088800026E036EE80E046E030E056E000E066E11
:10089800076E1ADFFF0E046E030E056E000E066E5D
:1008A800076E9CDD00C048F001C049F0020E015CF3
:1008B80002E1580E005C02E2828007D0495003082A
:1008C80002E148502008D8A08290E80E046E030E7A
:1008D800056E48C000F049C001F0ACDC000E026EA5
:1008E8000150025C02E1005000080FE2E80E046EBD
:1008F800030E056E48C000F049C001F09BDC300EC5
:100908000024466E000E476E04D0200E466E000E80
:10091800476E46C03BF0640E046E000E056E48C07C
:1009280000F049C001F086DC0A0E046E000E056E68
:1009380081DC08C000F009C001F0300E00243C6ED4
:100948000A0E046E000E056E48C000F049C001F0A2
:1009580071DC0A0E046E000E056E6CDC08C000F037
:1009680009C001F0300E00243D6E2E0E3E6E0A0EB8
:10097800046E000E056E48C000F049C001F05ADC54
:1009880008C000F009C001F0300E00243F6EDF0EF1
:10099800406E430E416E426A10D082902D0E3B6E1F
:1009A8002D0E3C6E2D0E3D6E200E3E6E200E3F6EBF
:1009B800200E406E200E416E426A0A0E046E000E32
:1009C800056E18C000F019C001F0A7DE300E002433
:1009D8002B6E0A0E046E000E056E18C000F019C0CA
:1009E80001F09BDE08C000F009C001F0300E0024C1
:1009F8002C6E730E2D6E200E2E6E16520BE04C0EC2
:100A08002F6E6F0E306E6E0E316E670E326E6F0E79
:100A1800336E0AD0430E2F6E750E306E720E316E25
:100A2800740E326E6F0E336E010E4A6E010E4B6EEF
:100A3800240E4C6E000E4D6E18DC020E4A6E010E2E
:100A48004B6E350E4C6E000E4D6E0FDC020E0B6EAB
:100A5800040E0C6EBA0E0D6E0D2EFED70C2EFCD7A2
:0A0A68000B2EFAD7000002D7FFD7CB
:100A9E0010EE16F0090E006E010E016E940EF66E3B
:0E0AAE000A0EF76E000EF86E9FEC01F01200BB
:100A720054656D706F3A20202020202020202020F5
:010A82000073
:100A83002054656D703A2020202020202020202033
:010A93000062
:010A94000160
:010A95003030
:020A96003C0022
:020A980000005C
:010A9A00005B
:010A9B00005A
:010A9C000059
:020000040030CA
:0E000000000C1F1EFF8381FF0FC00FE00F409A
:00000001FF
